{
  "transactions": [
    {
      "hash": "0x093cebb452a763e66120000bad9c6108256c8ee60281282e1e5c2a2288a75238",
      "transactionType": "CALL",
      "contractName": null,
      "contractAddress": "0xce0042b868300000d44a59004da54a005ffdcf9f",
      "function": "deploy(bytes,bytes32)",
      "arguments": [
        "0x60a080604052346021573060805261034e9081610026823960805181608f0152f35b5f80fdfe6080806040526004361015610012575f80fd5b5f3560e01c908163b8dc491b14610061575063f8b2cb4f14610032575f80fd5b3461005d57602036600319011261005d57602061005561005061026e565b6102a6565b604051908152f35b5f80fd5b604036600319011261005d5761007561026e565b6024356001600160a01b03811692919083900361005d57307f00000000000000000000000000000000000000000000000000000000000000006001600160a01b03161461025f576001600160a01b031690816101675750475f80808084875af13d15610162573d67ffffffffffffffff811161014e5760405190610103601f8201601f191660200183610284565b81525f60203d92013e5b1561013f5760207fed679328aebf74ede77ae09efcf36e90244f83643dadac1c2d9f0b21a46f6ab791604051908152a3005b633d2cec6f60e21b5f5260045ffd5b634e487b7160e01b5f52604160045260245ffd5b61010d565b6370a0823160e01b8152306004820152602081602481855afa908115610222575f9161022d575b5060205f6040518281019063a9059cbb60e01b8252866024820152846044820152604481526101be606482610284565b519082865af115610222575f513d6102195750813b155b6102065760207fed679328aebf74ede77ae09efcf36e90244f83643dadac1c2d9f0b21a46f6ab791604051908152a3005b50635274afe760e01b5f5260045260245ffd5b600114156101d5565b6040513d5f823e3d90fd5b90506020813d602011610257575b8161024860209383610284565b8101031261005d57518361018e565b3d915061023b565b6327844c6960e11b5f5260045ffd5b600435906001600160a01b038216820361005d57565b90601f8019910116810190811067ffffffffffffffff82111761014e57604052565b6001600160a01b0316806102ba5750333190565b6020602491604051928380926370a0823160e01b82523360048301525afa908115610222575f916102e9575090565b90506020813d602011610310575b8161030460209383610284565b8101031261005d575190565b3d91506102f756fea2646970667358221220eee69e5811e3ab25a11f10b33e9cf9bc874a95e6f0c2d783658810385af86a9f64736f6c634300081e0033",
        "0x0000000000000000000000000000000000000000000000000000000000000000"
      ],
      "transaction": {
        "from": "0xab41109fee8e1034c0f6a2c539ae1c869651f66b",
        "to": "0xce0042b868300000d44a59004da54a005ffdcf9f",
        "gas": "0x50179",
        "value": "0x0",
        "input": "0x4af63f0200000000000000000000000000000000000000000000000000000000000000400000000000000000000000000000000000000000000000000000000000000000000000000000000000000000000000000000000000000000000000000000037460a080604052346021573060805261034e9081610026823960805181608f0152f35b5f80fdfe6080806040526004361015610012575f80fd5b5f3560e01c908163b8dc491b14610061575063f8b2cb4f14610032575f80fd5b3461005d57602036600319011261005d57602061005561005061026e565b6102a6565b604051908152f35b5f80fd5b604036600319011261005d5761007561026e565b6024356001600160a01b03811692919083900361005d57307f00000000000000000000000000000000000000000000000000000000000000006001600160a01b03161461025f576001600160a01b031690816101675750475f80808084875af13d15610162573d67ffffffffffffffff811161014e5760405190610103601f8201601f191660200183610284565b81525f60203d92013e5b1561013f5760207fed679328aebf74ede77ae09efcf36e90244f83643dadac1c2d9f0b21a46f6ab791604051908152a3005b633d2cec6f60e21b5f5260045ffd5b634e487b7160e01b5f52604160045260245ffd5b61010d565b6370a0823160e01b8152306004820152602081602481855afa908115610222575f9161022d575b5060205f6040518281019063a9059cbb60e01b8252866024820152846044820152604481526101be606482610284565b519082865af115610222575f513d6102195750813b155b6102065760207fed679328aebf74ede77ae09efcf36e90244f83643dadac1c2d9f0b21a46f6ab791604051908152a3005b50635274afe760e01b5f5260045260245ffd5b600114156101d5565b6040513d5f823e3d90fd5b90506020813d602011610257575b8161024860209383610284565b8101031261005d57518361018e565b3d915061023b565b6327844c6960e11b5f5260045ffd5b600435906001600160a01b038216820361005d57565b90601f8019910116810190811067ffffffffffffffff82111761014e57604052565b6001600160a01b0316806102ba5750333190565b6020602491604051928380926370a0823160e01b82523360048301525afa908115610222575f916102e9575090565b90506020813d602011610310575b8161030460209383610284565b8101031261005d575190565b3d91506102f756fea2646970667358221220eee69e5811e3ab25a11f10b33e9cf9bc874a95e6f0c2d783658810385af86a9f64736f6c634300081e0033000000000000000000000000",
        "nonce": "0xd",
        "chainId": "0xa"
      },
      "additionalContracts": [
        {
          "transactionType": "CREATE2",
          "address": "0xda19716762ad509da235e0db518ba6fb7fa75dfd",
          "initCode": "0x60a080604052346021573060805261034e9081610026823960805181608f0152f35b5f80fdfe6080806040526004361015610012575f80fd5b5f3560e01c908163b8dc491b14610061575063f8b2cb4f14610032575f80fd5b3461005d57602036600319011261005d57602061005561005061026e565b6102a6565b604051908152f35b5f80fd5b604036600319011261005d5761007561026e565b6024356001600160a01b03811692919083900361005d57307f00000000000000000000000000000000000000000000000000000000000000006001600160a01b03161461025f576001600160a01b031690816101675750475f80808084875af13d15610162573d67ffffffffffffffff811161014e5760405190610103601f8201601f191660200183610284565b81525f60203d92013e5b1561013f5760207fed679328aebf74ede77ae09efcf36e90244f83643dadac1c2d9f0b21a46f6ab791604051908152a3005b633d2cec6f60e21b5f5260045ffd5b634e487b7160e01b5f52604160045260245ffd5b61010d565b6370a0823160e01b8152306004820152602081602481855afa908115610222575f9161022d575b5060205f6040518281019063a9059cbb60e01b8252866024820152846044820152604481526101be606482610284565b519082865af115610222575f513d6102195750813b155b6102065760207fed679328aebf74ede77ae09efcf36e90244f83643dadac1c2d9f0b21a46f6ab791604051908152a3005b50635274afe760e01b5f5260045260245ffd5b600114156101d5565b6040513d5f823e3d90fd5b90506020813d602011610257575b8161024860209383610284565b8101031261005d57518361018e565b3d915061023b565b6327844c6960e11b5f5260045ffd5b600435906001600160a01b038216820361005d57565b90601f8019910116810190811067ffffffffffffffff82111761014e57604052565b6001600160a01b0316806102ba5750333190565b6020602491604051928380926370a0823160e01b82523360048301525afa908115610222575f916102e9575090565b90506020813d602011610310575b8161030460209383610284565b8101031261005d575190565b3d91506102f756fea2646970667358221220eee69e5811e3ab25a11f10b33e9cf9bc874a95e6f0c2d783658810385af86a9f64736f6c634300081e0033"
        }
      ],
      "isFixedGasLimit": false
    }
  ],
  "receipts": [
    {
      "status": "0x1",
      "cumulativeGasUsed": "0x6446f6",
      "logs": [],
      "logsBloom": "0x00000000000000000000000000000000000000000000000000000000000000000000000000000000000000000000000000000000000000000000000000000000000000000000000000000000000000000000000000000000000000000000000000000000000000000000000000000000000000000000000000000000000000000000000000000000000000000000000000000000000000000000000000000000000000000000000000000000000000000000000000000000000000000000000000000000000000000000000000000000000000000000000000000000000000000000000000000000000000000000000000000000000000000000000000000000",
      "type": "0x2",
      "transactionHash": "0x093cebb452a763e66120000bad9c6108256c8ee60281282e1e5c2a2288a75238",
      "transactionIndex": "0x15",
      "blockHash": "0x5c95be3390d8440e3489261747b380f169b575722d8f833cdff6940e1b12dbd6",
      "blockNumber": "0x8545ff9",
      "gasUsed": "0x39fc4",
      "effectiveGasPrice": "0x18944",
      "blobGasUsed": "0x0",
      "from": "0xab41109fee8e1034c0f6a2c539ae1c869651f66b",
      "to": "0xce0042b868300000d44a59004da54a005ffdcf9f",
      "contractAddress": null,
      "l1BaseFeeScalar": "0x146b",
      "l1BlobBaseFee": "0x1",
      "l1BlobBaseFeeScalar": "0xf79c5",
      "l1Fee": "0x2ffb2f191f",
      "l1GasPrice": "0xddf2086f",
      "l1GasUsed": "0x295b"
    }
  ],
  "libraries": [],
  "pending": [],
  "returns": {},
  "timestamp": 1755093445,
  "chain": 10,
  "commit": "dd00c7d"
}