{
  "transactions": [
    {
      "hash": "0x5dc7beb5bb5a3e7f8f9c119abbcb2a5fa4f8b41b70890026234548583be604e5",
      "transactionType": "CALL",
      "contractName": null,
      "contractAddress": "0xce0042b868300000d44a59004da54a005ffdcf9f",
      "function": "deploy(bytes,bytes32)",
      "arguments": [
        "0x608080604052346015576102f1908161001a8239f35b5f80fdfe6080604052600436101561001a575b3615610018575f80fd5b005b5f3560e01c8063b8dc491b146100635763f8b2cb4f0361000e573461005f57602036600319011261005f576020610057610052610098565b61024a565b604051908152f35b5f80fd5b3461005f57604036600319011261005f5761007c610098565b6024356001600160a01b038116810361005f57610018916100e4565b600435906001600160a01b038216820361005f57565b90601f8019910116810190811067ffffffffffffffff8211176100d057604052565b634e487b7160e01b5f52604160045260245ffd5b6001600160a01b0390911690811561023b576100ff8161024a565b908115610236576001600160a01b0316908161019c575f80808084875af13d15610197573d67ffffffffffffffff81116100d0576040519061014b601f8201601f1916602001836100ae565b81525f60203d92013e5b156101885760207f7b09c29f9106defeccc9ac3b823f3aad0b470d120e5df7aed033b5c43a4bf718915b604051908152a3565b633d2cec6f60e21b5f5260045ffd5b610155565b60205f6040518281019063a9059cbb60e01b8252866024820152846044820152604481526101cb6064826100ae565b519082865af11561022b575f513d6102225750813b155b61020f5760207f7b09c29f9106defeccc9ac3b823f3aad0b470d120e5df7aed033b5c43a4bf7189161017f565b50635274afe760e01b5f5260045260245ffd5b600114156101e2565b6040513d5f823e3d90fd5b505050565b6311d000e160e31b5f5260045ffd5b6001600160a01b03168061025d57504790565b6020602491604051928380926370a0823160e01b82523060048301525afa90811561022b575f9161028c575090565b90506020813d6020116102b3575b816102a7602093836100ae565b8101031261005f575190565b3d915061029a56fea264697066735822122067301a05004951ae79af1c063a0b6f8256c72b606d82dea10caf4bef7e73dbc964736f6c634300081e0033",
        "0x0000000000000000000000000000000000000000000000000000000000000000"
      ],
      "transaction": {
        "from": "0xab41109fee8e1034c0f6a2c539ae1c869651f66b",
        "to": "0xce0042b868300000d44a59004da54a005ffdcf9f",
        "gas": "0x4950d",
        "value": "0x0",
        "input": "0x4af63f0200000000000000000000000000000000000000000000000000000000000000400000000000000000000000000000000000000000000000000000000000000000000000000000000000000000000000000000000000000000000000000000030b608080604052346015576102f1908161001a8239f35b5f80fdfe6080604052600436101561001a575b3615610018575f80fd5b005b5f3560e01c8063b8dc491b146100635763f8b2cb4f0361000e573461005f57602036600319011261005f576020610057610052610098565b61024a565b604051908152f35b5f80fd5b3461005f57604036600319011261005f5761007c610098565b6024356001600160a01b038116810361005f57610018916100e4565b600435906001600160a01b038216820361005f57565b90601f8019910116810190811067ffffffffffffffff8211176100d057604052565b634e487b7160e01b5f52604160045260245ffd5b6001600160a01b0390911690811561023b576100ff8161024a565b908115610236576001600160a01b0316908161019c575f80808084875af13d15610197573d67ffffffffffffffff81116100d0576040519061014b601f8201601f1916602001836100ae565b81525f60203d92013e5b156101885760207f7b09c29f9106defeccc9ac3b823f3aad0b470d120e5df7aed033b5c43a4bf718915b604051908152a3565b633d2cec6f60e21b5f5260045ffd5b610155565b60205f6040518281019063a9059cbb60e01b8252866024820152846044820152604481526101cb6064826100ae565b519082865af11561022b575f513d6102225750813b155b61020f5760207f7b09c29f9106defeccc9ac3b823f3aad0b470d120e5df7aed033b5c43a4bf7189161017f565b50635274afe760e01b5f5260045260245ffd5b600114156101e2565b6040513d5f823e3d90fd5b505050565b6311d000e160e31b5f5260045ffd5b6001600160a01b03168061025d57504790565b6020602491604051928380926370a0823160e01b82523060048301525afa90811561022b575f9161028c575090565b90506020813d6020116102b3575b816102a7602093836100ae565b8101031261005f575190565b3d915061029a56fea264697066735822122067301a05004951ae79af1c063a0b6f8256c72b606d82dea10caf4bef7e73dbc964736f6c634300081e0033000000000000000000000000000000000000000000",
        "nonce": "0x19",
        "chainId": "0x2105"
      },
      "additionalContracts": [
        {
          "transactionType": "CREATE2",
          "address": "0xc19b0e88eb6c09f4922cfc3caa6ae01c075712f5",
          "initCode": "0x608080604052346015576102f1908161001a8239f35b5f80fdfe6080604052600436101561001a575b3615610018575f80fd5b005b5f3560e01c8063b8dc491b146100635763f8b2cb4f0361000e573461005f57602036600319011261005f576020610057610052610098565b61024a565b604051908152f35b5f80fd5b3461005f57604036600319011261005f5761007c610098565b6024356001600160a01b038116810361005f57610018916100e4565b600435906001600160a01b038216820361005f57565b90601f8019910116810190811067ffffffffffffffff8211176100d057604052565b634e487b7160e01b5f52604160045260245ffd5b6001600160a01b0390911690811561023b576100ff8161024a565b908115610236576001600160a01b0316908161019c575f80808084875af13d15610197573d67ffffffffffffffff81116100d0576040519061014b601f8201601f1916602001836100ae565b81525f60203d92013e5b156101885760207f7b09c29f9106defeccc9ac3b823f3aad0b470d120e5df7aed033b5c43a4bf718915b604051908152a3565b633d2cec6f60e21b5f5260045ffd5b610155565b60205f6040518281019063a9059cbb60e01b8252866024820152846044820152604481526101cb6064826100ae565b519082865af11561022b575f513d6102225750813b155b61020f5760207f7b09c29f9106defeccc9ac3b823f3aad0b470d120e5df7aed033b5c43a4bf7189161017f565b50635274afe760e01b5f5260045260245ffd5b600114156101e2565b6040513d5f823e3d90fd5b505050565b6311d000e160e31b5f5260045ffd5b6001600160a01b03168061025d57504790565b6020602491604051928380926370a0823160e01b82523060048301525afa90811561022b575f9161028c575090565b90506020813d6020116102b3575b816102a7602093836100ae565b8101031261005f575190565b3d915061029a56fea264697066735822122067301a05004951ae79af1c063a0b6f8256c72b606d82dea10caf4bef7e73dbc964736f6c634300081e0033"
        }
      ],
      "isFixedGasLimit": false
    }
  ],
  "receipts": [
    {
      "status": "0x1",
      "cumulativeGasUsed": "0x19c940d",
      "logs": [],
      "logsBloom": "0x00000000000000000000000000000000000000000000000000000000000000000000000000000000000000000000000000000000000000000000000000000000000000000000000000000000000000000000000000000000000000000000000000000000000000000000000000000000000000000000000000000000000000000000000000000000000000000000000000000000000000000000000000000000000000000000000000000000000000000000000000000000000000000000000000000000000000000000000000000000000000000000000000000000000000000000000000000000000000000000000000000000000000000000000000000000",
      "type": "0x2",
      "transactionHash": "0x5dc7beb5bb5a3e7f8f9c119abbcb2a5fa4f8b41b70890026234548583be604e5",
      "transactionIndex": "0x73",
      "blockHash": "0xa722e46ed43062bb4dcadf8bbd0a5f1c918f0047702b55a943a1295e042db14f",
      "blockNumber": "0x207cd88",
      "gasUsed": "0x35145",
      "effectiveGasPrice": "0xdc89a8",
      "from": "0xab41109fee8e1034c0f6a2c539ae1c869651f66b",
      "to": "0xce0042b868300000d44a59004da54a005ffdcf9f",
      "contractAddress": null,
      "l1BaseFeeScalar": "0x8dd",
      "l1BlobBaseFee": "0x1",
      "l1BlobBaseFeeScalar": "0x101c12",
      "l1Fee": "0x9e0fe2f2d",
      "l1GasPrice": "0x6cfd282e",
      "l1GasUsed": "0x27f2"
    }
  ],
  "libraries": [],
  "pending": [],
  "returns": {},
  "timestamp": 1754920953,
  "chain": 8453,
  "commit": "56db88e"
}