{
  "transactions": [
    {
      "hash": "0x2e2cb41caf4779cfc58cdbb665ca246df4c04328f3b943330cb610b40df4cf08",
      "transactionType": "CALL",
      "contractName": null,
      "contractAddress": "0xce0042b868300000d44a59004da54a005ffdcf9f",
      "function": "deploy(bytes,bytes32)",
      "arguments": [
        "0x608080604052346015576102c1908161001a8239f35b5f80fdfe6080604052600436101561001a575b3615610018575f80fd5b005b5f3560e01c8063b8dc491b146100635763f8b2cb4f0361000e573461005f57602036600319011261005f5760206100576100526101e1565b610219565b604051908152f35b5f80fd5b3461005f57604036600319011261005f5761007c6101e1565b6024356001600160a01b038116919082900361005f5761009b81610219565b6001600160a01b039091169081610147575f80808084875af13d15610142573d67ffffffffffffffff811161012e57604051906100e2601f8201601f1916602001836101f7565b81525f60203d92013e5b1561011f5760207fed679328aebf74ede77ae09efcf36e90244f83643dadac1c2d9f0b21a46f6ab7915b604051908152a3005b633d2cec6f60e21b5f5260045ffd5b634e487b7160e01b5f52604160045260245ffd5b6100ec565b60205f6040518281019063a9059cbb60e01b8252866024820152846044820152604481526101766064826101f7565b519082865af1156101d6575f513d6101cd5750813b155b6101ba5760207fed679328aebf74ede77ae09efcf36e90244f83643dadac1c2d9f0b21a46f6ab791610116565b50635274afe760e01b5f5260045260245ffd5b6001141561018d565b6040513d5f823e3d90fd5b600435906001600160a01b038216820361005f57565b90601f8019910116810190811067ffffffffffffffff82111761012e57604052565b6001600160a01b03168061022d5750333190565b6020602491604051928380926370a0823160e01b82523360048301525afa9081156101d6575f9161025c575090565b90506020813d602011610283575b81610277602093836101f7565b8101031261005f575190565b3d915061026a56fea2646970667358221220c03c8808b6cb7cad63eaa38ee5ed3a2d1c7d06d72fcaaa727224a59cadb4fd3364736f6c634300081e0033",
        "0x0000000000000000000000000000000000000000000000000000000000000000"
      ],
      "transaction": {
        "from": "0xab41109fee8e1034c0f6a2c539ae1c869651f66b",
        "to": "0xce0042b868300000d44a59004da54a005ffdcf9f",
        "gas": "0x49ecf",
        "value": "0x0",
        "input": "0x4af63f020000000000000000000000000000000000000000000000000000000000000040000000000000000000000000000000000000000000000000000000000000000000000000000000000000000000000000000000000000000000000000000002db608080604052346015576102c1908161001a8239f35b5f80fdfe6080604052600436101561001a575b3615610018575f80fd5b005b5f3560e01c8063b8dc491b146100635763f8b2cb4f0361000e573461005f57602036600319011261005f5760206100576100526101e1565b610219565b604051908152f35b5f80fd5b3461005f57604036600319011261005f5761007c6101e1565b6024356001600160a01b038116919082900361005f5761009b81610219565b6001600160a01b039091169081610147575f80808084875af13d15610142573d67ffffffffffffffff811161012e57604051906100e2601f8201601f1916602001836101f7565b81525f60203d92013e5b1561011f5760207fed679328aebf74ede77ae09efcf36e90244f83643dadac1c2d9f0b21a46f6ab7915b604051908152a3005b633d2cec6f60e21b5f5260045ffd5b634e487b7160e01b5f52604160045260245ffd5b6100ec565b60205f6040518281019063a9059cbb60e01b8252866024820152846044820152604481526101766064826101f7565b519082865af1156101d6575f513d6101cd5750813b155b6101ba5760207fed679328aebf74ede77ae09efcf36e90244f83643dadac1c2d9f0b21a46f6ab791610116565b50635274afe760e01b5f5260045260245ffd5b6001141561018d565b6040513d5f823e3d90fd5b600435906001600160a01b038216820361005f57565b90601f8019910116810190811067ffffffffffffffff82111761012e57604052565b6001600160a01b03168061022d5750333190565b6020602491604051928380926370a0823160e01b82523360048301525afa9081156101d6575f9161025c575090565b90506020813d602011610283575b81610277602093836101f7565b8101031261005f575190565b3d915061026a56fea2646970667358221220c03c8808b6cb7cad63eaa38ee5ed3a2d1c7d06d72fcaaa727224a59cadb4fd3364736f6c634300081e00330000000000",
        "nonce": "0xe",
        "chainId": "0x89"
      },
      "additionalContracts": [
        {
          "transactionType": "CREATE2",
          "address": "0x731de867b2f53fd2d1021356129cf23f497bbfaa",
          "initCode": "0x608080604052346015576102c1908161001a8239f35b5f80fdfe6080604052600436101561001a575b3615610018575f80fd5b005b5f3560e01c8063b8dc491b146100635763f8b2cb4f0361000e573461005f57602036600319011261005f5760206100576100526101e1565b610219565b604051908152f35b5f80fd5b3461005f57604036600319011261005f5761007c6101e1565b6024356001600160a01b038116919082900361005f5761009b81610219565b6001600160a01b039091169081610147575f80808084875af13d15610142573d67ffffffffffffffff811161012e57604051906100e2601f8201601f1916602001836101f7565b81525f60203d92013e5b1561011f5760207fed679328aebf74ede77ae09efcf36e90244f83643dadac1c2d9f0b21a46f6ab7915b604051908152a3005b633d2cec6f60e21b5f5260045ffd5b634e487b7160e01b5f52604160045260245ffd5b6100ec565b60205f6040518281019063a9059cbb60e01b8252866024820152846044820152604481526101766064826101f7565b519082865af1156101d6575f513d6101cd5750813b155b6101ba5760207fed679328aebf74ede77ae09efcf36e90244f83643dadac1c2d9f0b21a46f6ab791610116565b50635274afe760e01b5f5260045260245ffd5b6001141561018d565b6040513d5f823e3d90fd5b600435906001600160a01b038216820361005f57565b90601f8019910116810190811067ffffffffffffffff82111761012e57604052565b6001600160a01b03168061022d5750333190565b6020602491604051928380926370a0823160e01b82523360048301525afa9081156101d6575f9161025c575090565b90506020813d602011610283575b81610277602093836101f7565b8101031261005f575190565b3d915061026a56fea2646970667358221220c03c8808b6cb7cad63eaa38ee5ed3a2d1c7d06d72fcaaa727224a59cadb4fd3364736f6c634300081e0033"
        }
      ],
      "isFixedGasLimit": false
    }
  ],
  "receipts": [
    {
      "status": "0x1",
      "cumulativeGasUsed": "0xe11241",
      "logs": [
        {
          "address": "0x0000000000000000000000000000000000001010",
          "topics": [
            "0x4dfe1bbbcf077ddc3e01291eea2d5c70c2b422b415d95645b9adcfd678cb1d63",
            "0x0000000000000000000000000000000000000000000000000000000000001010",
            "0x000000000000000000000000ab41109fee8e1034c0f6a2c539ae1c869651f66b",
            "0x000000000000000000000000bc6044f4a1688d8b8596a9f7d4659e09985eebe6"
          ],
          "data": "0x00000000000000000000000000000000000000000000000000154b6a6505a7ef0000000000000000000000000000000000000000000000001f7eb9de04b901110000000000000000000000000000000000000000000000c1dc765b6e3e1a68c00000000000000000000000000000000000000000000000001f696e739fb359220000000000000000000000000000000000000000000000c1dc8ba6d8a32010af",
          "blockHash": "0x2856fb9eeeb36840b5c6baa9687677fbf415ed315ceed782769ec06ea3ac5a90",
          "blockNumber": "0x47ac664",
          "transactionHash": "0x2e2cb41caf4779cfc58cdbb665ca246df4c04328f3b943330cb610b40df4cf08",
          "transactionIndex": "0x54",
          "logIndex": "0x20d",
          "removed": false
        }
      ],
      "logsBloom": "0x00000000000000000000000000000000000000000000000000000000000000000000000000000000000000000000000000008000000000000000000000000000000000000000000000000000000000800000000080000000000100000000000000000000000000000400000000000000000000000000000080000000000000000000000000000000000000000000000000000000000000000001000000000000200000000000000000000000000000000000000000000000000000000000004000000000000000000001000000000008000000000000000000100001000000000000000000000000000000000000000000000000000000000000000000100400",
      "type": "0x2",
      "transactionHash": "0x2e2cb41caf4779cfc58cdbb665ca246df4c04328f3b943330cb610b40df4cf08",
      "transactionIndex": "0x54",
      "blockHash": "0x2856fb9eeeb36840b5c6baa9687677fbf415ed315ceed782769ec06ea3ac5a90",
      "blockNumber": "0x47ac664",
      "gasUsed": "0x328c3",
      "effectiveGasPrice": "0x6bd8df339",
      "from": "0xab41109fee8e1034c0f6a2c539ae1c869651f66b",
      "to": "0xce0042b868300000d44a59004da54a005ffdcf9f",
      "contractAddress": null
    }
  ],
  "libraries": [],
  "pending": [],
  "returns": {},
  "timestamp": 1755089872,
  "chain": 137,
  "commit": "656e660"
}